:10000000020106C00078B10000D8FCD00022C00078
:10001000C001792D78A6D8FED9FADAF6D001D00041
:1000200022C000C00179167853D8FED9FADAF6D08A
:1000300001D00022C000C001794678FAD8FED9FA72
:10004000DAF6D001D00022741C1200B412000E2285
:1000500074181200B412000E221200471200471248
:1000600000471200471200501200501200501200B8
:100070005012005012005012005012005012005046
:100080001200501200501200501200501200501274
:1000900000501200502274081200B412000E740CAA
:1000A0001200B412000E22D2B3120003C2B322D245
:1000B000B20200B9C2B20200B9A2E792B7A2E692B8
:1000C000B6A2E592B5A2E492B41200A7A2E392B759
:1000D000A2E292B6A2E192B5A2E092B41200A722E7
:1000E000C2B374331200B474331200B47432120009
:1000F000B474281200B4740C1200B474011200B469
:100100007A0212000E2275817F1200E07480740E54
:100110001200B412002174201200AF7481740E1208
:1001200000B412002174201200AF7482740E120009
:10013000B412002174201200AF7483740E1200B444
:1001400012002174201200AF7484740E1200B412D5
:10015000003474521200AF7485740E1200B4120091
:100160000E74551200AF7486740E1200B412000E95
:1001700074541200AF7487740E1200B412000E741F
:10018000481200AF7488740E1200B412000E74206E
:100190001200AF7489740E1200B412000E7454125F
:1001A00000AF748A740E1200B4120034744112004D
:1001B000AF748B740E1200B412000E74551200AF9F
:1001C00074C01200B4740E1200B412000E74201227
:1001D00000AF74C11200B4740E1200B41200217486
:1001E000201200AF74C21200B4740E1200B41200D8
:1001F0002174201200AF74C3740E1200B4120021D7
:1002000074201200AF74C4740E1200B412000E7485
:10021000331200AF74C5740E1200B412000E74379E
:100220001200AF74C6740E1200B412000E743112B4
:1002300000AF74C5740E1200B412000E74301200B8
:10024000AF74C7740E1200B412000E74301200AFF7
:1002500074C8740E1200B412000E74351200AF741C
:10026000C9740E1200B412000E74311200AF74CAB9
:10027000740E1200B412000E74381200AF74CB74F6
:100280000F1200B4120034120034120034740C1235
:1002900000B41200591200E07480740E1200B412FF
:1002A000000E747E1200AF7481740E1200B412003E
:1002B0000E747E1200AF7482740E1200B41200210C
:1002C00074201200AF7483740E1200B412002174F3
:1002D000201200AF7484740E1200B4120021742036
:1002E0001200AF74851200B412003474521200AFC1
:1002F00012000374871200B412003474241200AF89
:1003000012000374861200B412003474451200AF58
:1003100012000374891200B412003474541200AF36
:1003200012000374881200B412003474451200AF36
:10033000120003748A1200B412002174201200AF5C
:10034000748B1200B412002174201200AF748C74EC
:100350000E1200B412002174201200AF748D740EBE
:100360001200B412002174201200AF748E740E12A9
:1003700000B412000E747F1200AF748F740E12005E
:10038000B412000E747F1200AF12000E74C512007A
:10039000B412000E742A1200AF74C61200B4120018
:1003A0000E74D81200AF74C71200B412000E74BEDF
:1003B0001200AF12000E74C81200B412000E74C204
:1003C0001200AF12000E74C91200B412000E74C4F1
:1003D0001200AF12000E74CF1200B474FF1200AFFF
:1003E00012002174CE1200B474FF1200AF1200216B
:1003F00074CD1200B474FF1200AF12002174CC123D
:1004000000B474FF1200AF12002174CB1200B47458
:10041000FF1200AF12002174CA1200B474FF120060
:10042000AF12002174C91200B474FF1200AF1200A1
:100430002174C81200B474FF1200AF12002174C7F7
:100440001200B474FF1200AF12002174C61200B47F
:1004500074FF1200AF12002174C51200B474FF12B1
:1004600000AF12002174C41200B474FF1200AF1266
:10047000002174C31200B474FF1200AF1200217483
:10048000C21200B474FF1200AF12002174C1120036
:10049000B474FF1200AF12002174C01200B474FFD4
:1004A0001200AF12002174801200B474FF1200AF6A
:1004B00012002174811200B474FF1200AF120021E7
:1004C00074821200B474FF1200AF12002174831200
:1004D00000B474FF1200AF12002174841200B474CF
:1004E000FF1200AF12002174851200B474FF1200D5
:1004F000AF12002174861200B474FF1200AF120014
:100500002174871200B474FF1200AF1200217488A6
:100510001200B474FF1200AF12002174891200B4EB
:1005200074FF1200AF120021748A1200B474FF121B
:1005300000AF120021748B1200B474FF1200AF12CE
:100540000021748C1200B474FF1200AF12002174E9
:100550008D1200B474FF1200AF120021748E1200CD
:10056000B474FF1200AF120021748F1200B474FF34
:100570001200AF12002112009612009674081200A9
:03058000B480FE46
:00000001FF
