:03000000020D529C
:01000B0032C2
:03001B0002034A93
:03002B0002045973
:10002E00C0E0C0D0C000C001C002E4F54BF54CF5F5
:10003E004DF54EF54F7A20E546A2E779047843E672
:10004E0033F608D9FA7905784BE636D4F608D9F99D
:10005E00DAE5D002D001D000D0D0D0E022C0E0C08E
:10006E00D0C000C001C002E4F54BF54CF54DF54E85
:10007E00F54F7A20E546A2E779047843E633F60891
:10008E00D9FA7905784BC0D0E6243320E70224D084
:10009E0020E30224FDD0D033F608D9EADAD6D00216
:1000AE00D001D000D0D0D0E022C0E0C0D0C000C07F
:1000BE0001C0027A207905C3784FE613C0D030E72D
:1000CE000224D030E30224FDF618D0D0D9EC790406
:1000DE007846E613F618D9FADADBD002D001D00052
:1000EE00D0D0D0E022C0E0C0D0E5432547F543E5AF
:1000FE00443548F544E5453549F545E546354AF577
:10010E0046D0D0D0E022C0E0C0D0C3E5439547F53D
:10011E0043E5449548F544E5459549F545E546954D
:10012E004AF546D0D0D0E022C0E0C0D0C3E543951A
:10013E0047E5449548E5459549E546954A9209D0E7
:10014E00D0D0E022C0E0C0D0C3E5479543E5489546
:10015E0044E5499545E54A95469209D0D0D0E0222E
:10016E00C0E0C0D0C209C3E54795437014E5489579
:10017E0044700EE54995457008E54A95467002D2E1
:10018E0009D0D0D0E02212016E20090302015222C2
:10019E0012016E20090302013622C0E0C0F0C0D069
:1001AE00C000C001C002C003E5438547F0A4F8A912
:1001BE00F0E5448547F0A429F9E435F0FAE54385E6
:1001CE0048F0A429F9E5F03AFAE433FBE545854712
:1001DE00F0A42AFAE5F03BFBE5448548F0A42AFAA0
:1001EE00E5F03BFBE5438549F0A42AFAE5F03BFB3D
:1001FE00E5468547F0A42BFBE5458548F0A42BFB8F
:10020E00E5448549F0A42BFBE543854AF0A42BFB7E
:10021E008B468A4589448843D003D002D001D00052
:10022E00D0D0D0F0D0E022C0E0C0D0C000C001C01D
:10023E0002C003C0047C20E4F8F9FAFBC3E54333A3
:10024E00F543E54433F544E54533F545E54633F5E9
:10025E0046E833F8E933F9EA33FAEB33FBC3E895B2
:10026E0047E99548EA9549EB954A4013E89547F8D2
:10027E00E99548F9EA9549FAEB954AFB434301DCC7
:10028E00BBD004D003D002D001D000D0D0D0E02219
:10029E00C00078B10000D8FCD00022C000C00179A7
:1002AE002D78A6D8FED9FADAF6D001D00022D2B334
:1002BE0012029EC2B322A2E792B7A2E692B6A2E5BE
:1002CE0092B5A2E492B41202BC12029EA2E392B7BD
:1002DE00A2E292B6A2E192B5A2E092B41202BC22C0
:1002EE00D2B20202C4C2B20202C4C2B37433120248
:1002FE00F374331202F374321202F374281202F3FF
:10030E00740C1202F374011202F3C0027A0212028A
:10031E00A9D00222E49360061202EEA380F62244D4
:10032E004044800202F3C0E0E8C4540F443012028D
:0C033E00EEE8540F44301202EED0E02232
:10034A00C0E0C0D0E53045314532601A74FF15303F
:10035A00B530071531B531021532D2A6120381F52F
:10036A00AD43A440800CC28ED2A5C2A675AD80430F
:10037A00A440D0D0D0E0323392A4D2A7A296C2A78A
:10038A0092E03392A4D2A7A296C2A792E03392A493
:10039A00D2A7A296C2A792E03392A4D2A7A296C2EB
:1003AA00A792E03392A4D2A7A296C2A792E0339270
:1003BA00A4D2A7A296C2A792E03392A4D2A7A296E9
:1003CA00C2A792E03392A4D2A7A296C2A792E02231
:1003DA00C2A57406120381D2A522C2A5740512030E
:1003EA00817455120381D2A520E0EF223099FDC213
:1003FA0099F5992210980280FBE59922D296C2A714
:10040A00D293C29222C0E079007A08E833F892A126
:10041A00D292A293E933F9C292DAF0D0E02279DEDD
:10042A0078A6D8FED9FA438780759852759B0075CD
:10043A009AF4759B1E2275C80075CDA975CC9A755C
:10044A00CBA975CA9AE4F541F542D2ADD2CA22C205
:10045A00CFC0E0C0D00541E54170020542C3E53D89
:10046A009541E53E95429294E541B4E836E542B4B9
:10047A000331D20AE4F541F5420540E53FB40507E8
:10048A00D207753F008002053F30030BE540B533C4
:10049A0012C203D204800C300509E540B53404C207
:1004AA0005D206D0D0D0E03275F06484443012020E
:1004BA00EEE5F075F00A8444301202EEE5F04430BD
:1004CA001202EE22C0A8C2AF75D108907F80E5352E
:1004DA00F0A3E533F0A3E536F0A3E534F0A37455B1
:1004EA00F0A374AAF0A375D10043D24075D1507518
:1004FA00D1A075D10053D2BFD0A82254533A20209C
:10050A002054523A20202020542020200074733A8C
:10051A0020202074523A20202020202020200090E1
:10052A007F84E493F8A3B8551FE493F8A3B8AA18F4
:10053A00907F80E493F535A3E493F533A3E493F530
:10054A0036A3E493F534A32275359675332D7536A3
:10055A00E175341E22C0E0E8C4540F44301203F699
:10056A00E8540F44301203F6D0E022C2A0780112F8
:10057A00040FE5F0C454F0D2E7F812040FE954036B
:10058A00FF785512040FE9FED2A02275F000120579
:10059A00758E438F447545007546007547C4754886
:1005AA0003754900754A001201A87547E8754803A2
:1005BA00754900754A001202357547167548007567
:1005CA004900754A001200F385433985443A854546
:1005DA003B85463C12002E200A0122C000A84D127B
:1005EA00055FD000C000A84C12055FD000C000A86B
:1005FA004B12055FD000740D1203F6740A1203F64B
:10060A00C20A22C0027AFA1202A9D002C0027AFAF7
:10061A001202A9D002C0027AFA1202A9D002C002BA
:10062A007AFA1202A9D00222C28ED2A5C2A6C2A505
:10063A0074031203817402120381748C120381748D
:10064A00BD120381740012038175320075313A7547
:10065A003098D2A6D28E12060D22C28ED2A5C2A67A
:10066A00C2A57403120381740212038174DC12039B
:10067A008174BB12038174001203817532007531D3
:10068A003A753098D2A6D28E12060D22C28ED2A503
:10069A00C2A6C2A574031203817403120381741DD6
:1006AA0012038174BC120381740012038175320033
:1006BA0075313A753098D2A6D28E12060D22C28EA4
:1006CA00D2A5C2A6C2A574031203817403120381C0
:1006DA00744E12038174B31203817400120381757C
:1006EA00320075313A753098D2A6D28E12060D2292
:1006FA00C28ED2A5C2A6C2A57403120381740312C4
:10070A0003817499120381744B12038174001203DA
:10071A008175320075313A753098D2A6D28E12069A
:10072A000D22C28ED2A5C2A6C2A574031203817479
:10073A000312038174E312038174E31203817400C8
:10074A0012038175320075313A753098D2A6D28E6D
:10075A0012060D22C28ED2A5C2A6C2A57403120326
:10076A00817404120381742E120381747B12038133
:10077A00740012038175320075313A753098D2A629
:10078A00D28E12060D22C28ED2A5C2A6C2A57403AB
:10079A00120381740412038174791203817413128F
:1007AA000381740012038175320075313A753098ED
:1007BA00D2A6D28E12060D22C28ED2A5C2A6C2A57A
:1007CA007403120381740412038174C312038174C3
:1007DA00AB120381740012038175320075313A75C8
:1007EA003098D2A6D28E12060D22C28ED2A5C2A6E9
:1007FA00C2A574031203817405120381740E1203D5
:10080A0081744312038174001203817532007531B9
:10081A003A753098D2A6D28E12060D22C28ED2A571
:10082A00C2A6C2A574031203817405120381745807
:10083A0012038174DB120381740012038175320082
:10084A007531307530FCD2A6D28E12060D22C28EB8
:10085A00D2A5C2A6C2A5740312038174051203812C
:10086A00748F12038174D712038174001203817585
:10087A00320075313A753098D2A6D28E12060D2200
:10088A00C28ED2A5C2A6C2A5740312038174051230
:10089A00038174DA120381746F12038174001203E4
:1008AA008175320075313A753098D2A6D28E120609
:1008BA000D22C28ED2A5C2A6C2A5740312038174E8
:1008CA0006120381742512038174071203817400CE
:1008DA0012038175320075313A753098D2A6D28EDC
:1008EA0012060D22C28ED2A5C2A6C2A57403120395
:1008FA00817406120381746F120381749F1203813B
:10090A00740012038175320075313A753098D2A697
:10091A00D28E12060D22C28ED2A5C2A6C2A5740319
:10092A00120381740612038174B812038174371298
:10093A000381740012038175320075314275306883
:10094A00D2A6D28E12060D22C28ED2A5C2A6C2A5E8
:10095A0074031203817407120381740C12038174E5
:10096A009F120381740012038175320075314E752E
:10097A003020D2A6D28E12060D22C28ED2A5C2A6CF
:10098A00C2A574031203817407120381746A1203E5
:10099A008174BF12038174001203817532007531AC
:1009AA004E753020D2A6D28E12060D22C28ED2A544
:1009BA00C2A6C2A57403120381740712038174C804
:1009CA0012038174DF1203817400120381753200ED
:1009DA0075314E753020D2A6D28E12060D22C28EE5
:1009EA00D2A5C2A6C2A57403120381740812038198
:1009FA00742612038174FF12038174001203817535
:100A0A00320075314E753020D2A6D28E12060D22D2
:100A1A00C28ED2A5C2A6C2A574031203817408129B
:100A2A0003817485120381741F12038174001203F7
:100A3A008175320075314E753020D2A6D28E1206DB
:100A4A000D22C28ED2A5C2A6C2A574031203817456
:100A5A000812038174E3120381743F120381740044
:100A6A0012038175320075313A753098D2A6D28E4A
:100A7A0012060D22C28ED2A5C2A6C2A57403120303
:100A8A00817409120381741D12038174D7120381C0
:100A9A00740012038175320075313A753098D2A606
:100AAA00D28E12060D22C28ED2A5C2A6C2A5740388
:100ABA0012038174091203817468120381746F121C
:100ACA000381740012038175320075313A753098CA
:100ADA00D2A6D28E12060D22C28ED2A5C2A6C2A557
:100AEA007403120381740912038174B312038174AB
:100AFA0007120381740012038175320075313A7549
:100B0A003098D2A6D28E12060D22C28ED2A5C2A6C5
:100B1A00C2A57403120381740912038174FD1203BE
:100B2A0081749F120381740012038175320075313A
:100B3A003A753098D2A6D28E12060D22C28ED2A54E
:100B4A00C2A6C2A57403120381740A1203817448EF
:100B5A001203817437120381740012038175320003
:100B6A0075313A753098D2A6D28E12060D22C28EEF
:100B7A00D2A5C2A6C2A57403120381740A12038104
:100B8A00749212038174CF12038174001203817567
:100B9A00320075313A753098D2A6D28E12060D22DD
:100BAA00C28ED2A5C2A6C2A57403120381740A1208
:100BBA00038174F0120381743F12038174001203DB
:100BCA008175320075314E753020D2A6D28E22C27E
:100BDA008ED2A5C2A6C2A57403120381740B120396
:100BEA0081742E12038174541203817400120381DA
:100BFA0075320075314E753020D2A6D28E12060D8E
:100C0A0022C28ED2A5C2A6C2A574031203817400A1
:100C1A001203817400120381742D1203817400126D
:100C2A0003817532007531D67530D8D2A6D28E12AC
:100C3A00060DC0027AFA1202A9D002C0027AFA128A
:100C4A0002A9D002C0027AFA1202A9D00222C28EE6
:100C5A00D2A5C2A6C2A5740312038174011203812C
:100C6A00740012038174FF120381740012038175E8
:100C7A0032007531307530FCD2A6D28E12060D22A2
:100C8A00C28ED2A5C2A6C2A5740312038174011230
:100C9A000381743312038174DF1203817400120317
:100CAA00817532007531367530B0D2A6D28E1206F1
:100CBA000D22C28ED2A5C2A6C2A5740312038174E4
:100CCA0001120381749512038174D712038174008F
:100CDA0012038175320075314E753020D2A6D28E3C
:100CEA0012060D22C28ED2A5C2A6C2A57403120391
:100CFA0081740112038174F712038174CF12038184
:100D0A00740012038175320075313A753098D2A693
:100D1A00D28E12060D22C28ED2A5C2A6C2A5740315
:100D2A001203817402120381743312038174001254
:100D3A000381740012038175320075314E753020BB
:100D4A00D2A6D28E12060D2275817F75E60075E74E
:100D5A0000754000C207C20A120440120529120493
:100D6A000612040A12042843CEB043CFB0D296D258
:100D7A00A5C2A7C2A653890F438910758DFC758B2E
:100D8A001575F5FC75F315D2AB75A5A075A43A7562
:100D9A00AD8075AC0043A440E5A420E6FBD2AF12B7
:100DAA0002F8D201C202C203C204C205C206D28636
:100DBA00753D00753E00C0E074011412032FD0E0A7
:100DCA00C083C082C0E0900505120322D0E0D08221
:100DDA00D083C0E074011412032DD0E0C083C08216
:100DEA00C0E0900517120322D0E0D082D083C0E081
:100DFA0074041412032DD0E0E5331204B2C0E07477
:100E0A00041412032FD0E0E5351204B2C0E07409CD
:100E1A001412032DD0E0E5341204B2C0E0740914B0
:100E2A0012032FD0E0E5361204B27540008000208C
:100E3A00852CC0027A321202A9D002208520308580
:100E4A00FD208604153580020535C0E074041412AD
:100E5A00032FD0E0E5351204B21204CE80002083BD
:100E6A002CC0027A321202A9D0022083203083FDDC
:100E7A00208604153380020533C0E074041412037B
:100E8A002DD0E0E5331204B21204CE800020822C69
:100E9A00C0027A321202A9D0022082203082FD20BA
:100EAA008604153680020536C0E0740B1412032F2F
:100EBA00D0E0E5361204B21204CE800020802CC0A5
:100ECA00027A321202A9D0022080203080FD2086C8
:100EDA0004153480020534C0E0740B1412032DD0BB
:100EEA00E0E5341204B21204CE800020802CC00245
:100EFA007A321202A9D0022080203080FD20860496
:100F0A00153480020534C0E0740E1412032DD0E0AB
:100F1A00E5391204B21204CE8000C206D201753D30
:100F2A0000753E00021015754000120595C2812019
:100F3A00870FC0027A321202A9D0022087033087B3
:100F4A0003020E39C201D202021015753DE8753E40
:100F5A0003C0027AFF1202A9D002D281E4120595D7
:100F6A00C3E539953540057540008015E540643C78
:100F7A00600270D0E5399432400280C8C202020F82
:100F8A0024C202D203021015753DC8753E00C00284
:100F9A007AFF1202A9D002120595E5406533600274
:100FAA0080DFC203D204021015753DE8753E03C006
:100FBA00027AFF1202A9D002120595E539C39536C5
:100FCA0040E07540008000C204D205021015753D4C
:100FDA00C8753E00C0027AFF1202A9D00212059516
:100FEA00E540B534E28000C205D206021015753D0F
:100FFA0000753E00C0027AFF1202A9D002120595BE
:10100A00754000E539B43BDF020E39D208200703E8
:10101A00021196C20820010F200211200313200496
:10102A0015200517200619120C0B8019120C58806E
:10103A0014120C8A800F120CBC800A120CEE800566
:10104A00120D208000D208E539C3946440260210AC
:10105A005BC208E53975F06484B4020A8000120B99
:10106A00D9D208021078120BAAD2080210783008D6
:10107A00FD02107EE53975F06484E5F0C3941440EE
:10108A00030211EEE53975F06484E5F0640002119B
:10109A0096C208640160030210AA12066402119142
:1010AA00640260030210B71206960211916403608B
:1010BA00030210C41206C8021191640460030210EC
:1010CA00D11206FA021191640560030210DE1207BA
:1010DA002C021191640660030210EB12075E0211E2
:1010EA0091640760030210F81207900211916408D4
:1010FA0060030211051207C202119164096003021A
:10110A0011121207F4021191640A600302111F12EC
:10111A000826021191640B600302112C120858026E
:10112A001191640C600302113912088A0211916448
:10113A000D60030211461208BC021191640E60038D
:10114A000211531208EE021191640F60030211603A
:10115A001209200211916410600302116D120952E2
:10116A000211916411600302117A1207900211911F
:10117A00641260030211871209B6021191641360A6
:10118A00001209E8021191D2080211963008FD8076
:10119A0000C20720013CC0027A321202A9D0022002
:1011AA000233C0027A321202A9D00220032AC002F4
:1011BA007A321202A9D002200421C0027A32120223
:1011CA00A9D002200518C0027A321202A9D0022040
:1011DA00060F020F31020F55020F92020FB3020FD0
:1011EA00D8020FF8E53975F06484E5F075F00A84E1
:1011FA00C20864026003021209120A1A0212646423
:10120A00036003021216120A4C0212646404600399
:10121A00021223120A7E021264640560030212306B
:10122A00120AB00212646406600302123D120AE254
:10123A000212646407600302124A120B1402126457
:10124A0064086003021257120B46021264640960B2
:10125A0003021264120B78021264E5F0D208021239
:10126A006B3008FD021271C2086401600302128029
:10127A001206640212E86402600302128D120696D4
:10128A000212E86403600302129A1206C80212E804
:10129A00640460030212A71206FA0212E8640560E7
:1012AA00030212B412072C0212E864066003021247
:1012BA00C112075E0212E8640760030212CE120727
:1012CA00900212E8640860030212DB1207C20212DB
:1012DA00E8640960030212E81207F40212E8D2086D
:0312EA0002119658
:00000001FF
