:1000000002000375818F12039DE582600302006F79
:10001000780079007A007B007C007D00EC4D601C4C
:1000200088828983E493A3A882A9838A828B83F040
:10003000A3AA82AB831CBCFFE31D80E07582007520
:1000400083007C007D00EC4D600AE4F0A31CBCFF43
:10005000F51D80F27582007583007C007D00EC4DFB
:10006000600AE4F0A31CBCFFF51D80F212039C1291
:1000700006F580FE1B5B324A0041444320746573E1
:10008000742070726F6772616D0A46696C653A2000
:1000900025730A436F6D70696C65643A2025732C73
:1000A0002025730A0A00433A5C55736572735C74C9
:1000B000617579615C446F776E6C6F6164735C45E8
:1000C0004C4543203239315C4C6162355C6C616275
:1000D0003530362E63004D617220203920323032A7
:1000E000330031363A32363A34350056312020204A
:1000F000563220202050686173650025332E326609
:100100002025332E32662025332E3166640054318B
:100110002F323D25342E3366206D73204672657173
:100120003D25342E336620487A20567265665F522C
:100130004D533D25352E3366562C20567369675F27
:10014000524D533D25352E336656205068617365F8
:100150003D25342E33666465670A00202020574110
:100160005645204C454E4754482020002A2A2A2A2A
:100170002A2A2A2A2A2A2A2A2A2A2A2A0020202027
:100180002025342E3266206D20200020202020469D
:1001900052455155454E4359202020002020202013
:1001A00025332E326620487A20202020002020206F
:1001B000434F4C4F5220534C4944452020002320AC
:1001C000202020202020202020202020202000234C
:1001D000232020202020202020202020202020003C
:1001E0002323232020202020202020202020202006
:1001F0000023232323202020202020202020202013
:1002000020002323232323202020202020202020FF
:1002100020200023232323232320202020202020EC
:1002200020202000232323232323232020202020D9
:1002300020202020002323232323232323202020C6
:1002400020202020200023232323232323232320B3
:1002500020202020202000232323232323232323A3
:100260002320202020202000232323232323232393
:100270002323232020202020002323232323232380
:10028000232323232320202020002323232323236D
:10029000232323232323232020200023232323235A
:1002A0002323232323232323232020002323232347
:1002B0002323232323232323232323200023232334
:1002C0002323232323232323232323232300202027
:1002D00020202020205245442020202020200020C3
:1002E00020203632302D373530206E6D2020200012
:1002F00020202020204F52414E4745202020202002
:10030000002020203539302D363230206E6D2020EF
:100310002000202020202059454C4C4F57202020E1
:100320002020002020203537302D353930206E6DCB
:1003300020202000202020202020475245454E200C
:10034000202020202020002020203439352D353752
:1003500030206E6D20202000202020202020424CC4
:100360005545202020202020002020203435302D0D
:10037000343935206E6D202020002020202020568A
:10038000494F4C4554202020202000202020333885
:10039000302D343530206E6D202020002275A700CE
:1003A0007597DE7597AD75FF8075EF0675A71075AB
:1003B000C12075A70075A90075A900E5A930E7FB64
:1003C00075A90375A903E5A930E7FB43A410E5A5CA
:1003D00075A5FF75E10175E20075E340759810851C
:1003E0008E8E758DE6858D8B53890F438920D28E35
:1003F000D2997582002275A700C2EF75B28075BCD4
:100400002075B91E75E80075DF3F75B300D2EF2285
:10041000AA82438E407592B87593FF859294859316
:10042000957591047B00C3EB9A500BE59130E7FB87
:1004300053917F0B80F075910022AA82AB837C00E0
:100440007D00C3EC9AED9B502B7E00BE0400501D36
:100450007582FAC002C003C004C005C006120410B1
:10046000D006D005D004D003D0020E80DE0CBC0034
:10047000D10D80CE225389F0438901C28C22D2A5AE
:10048000758228120410C2A522AA828AE0A2E792ED
:10049000A1A2E692A2A2E592A3A2E492A4C00212B3
:1004A000047E758228120410D0028AE0A2E392A191
:1004B000A2E292A2A2E192A3A2E092A402047EAAE6
:1004C00082D2A68A8212048990000202043AAA8289
:1004D000C2A68A8212048990000502043AC2A5903D
:1004E000001412043A7582331204CE75823312045A
:1004F000CE7582321204CE7582281204CE75820C1B
:100500001204CE7582011204CE90001402043AAA9D
:1005100082AB83ACF07402B523047DC080027D8081
:100520008D82C002C003C0041204CE9000051204E4
:100530003AD004D003D0027D007E00ED2AFFEE3BCE
:10054000F88C018F82888389F012143AFF60208F23
:1005500082C002C003C004C005C0061204BFD0069A
:10056000D005D004D003D0020DBD00CF0E80CC301A
:1005700000248D028E03C3EA9410EB6480948050B3
:1005800015758220C002C0031204BFD003D0020A36
:10059000BA00E30B80E02285822685832785F02838
:1005A000E4F529F52AE52424FFFFE52534FFF87951
:1005B000007A00C3E99FEA648088F063F08095F0D8
:1005C0005059C002C007C000C0011215CFAB82D085
:1005D00001D000D007D002BB0A028003BB0D1DE58D
:1005E000292526FCE52A3527FDAE288C828D838EB1
:1005F000F0E41215E2852982852A8322E92526FC6A
:10060000EA3527FDAE288C828D838EF0EB1215E241
:1006100009B900010A89298A2A8098E5292526FA3C
:10062000E52A3527FBAC288A828B838CF0E41215EF
:10063000E285248285258322C2EDD2EC30EDFD8552
:10064000BD8285BE8322AA828511F005F0740180E7
:100650000225E0D5F0FBFB75A720BA0002800ABA9C
:100660000102800FBA021E8014EBF4FA52F1EB4241
:10067000D48012EBF4FA52F2EB42D58008EBF4FA94
:1006800052F3EB42CC75A700228582BBC2EDD2ECBF
:1006900030EDFD85BD8285BE832212068912145677
:1006A000AA82AB83ACF0FDC002C003C004C00590B9
:1006B00022D175F0537440121492AA82AB83ACF02D
:1006C000FDE58124FCF581E4C0E074FCC0E0747FAA
:1006D000C0E07446C0E08A828B838CF0ED1216A8CD
:1006E000AA82AB83ACF0FDE58124FCF5818A828B84
:1006F000838CF0ED22754300754400754500754606
:1007000000754700754800754900754A00C2871298
:1007100004DD1204759001F412043A7474C0E0749C
:1007200000C0E07480C0E01215AE158115811581FE
:1007300074E2C0E07400C0E07480C0E074D6C0E031
:100740007400C0E07480C0E074A6C0E07400C0E033
:100750007480C0E07479C0E07400C0E07480C0E0D0
:100760001215AEE58124F4F581751104758201122C
:1007700006467511067582011206461203F6758249
:100780000A120689758A00758C00C28D75220012C6
:100790000638E5828583F045F070F4120638E5826C
:1007A0008583F045F060F4D28C120638E5828583AB
:1007B000F045F06009108D0280EF052280EB1206F3
:1007C00038E5828583F045F07009108D0280EF05D1
:1007D0002280EBC28C75820C120689858C821215E0
:1007E0003585825785835885F059F55A858A821256
:1007F000153585825B85835C85F05DF55EA28D8510
:100800002282121535AC82AD83AAF0FBC004C0056C
:10081000C002C00390000075F080744712149285E6
:10082000826685836785F068F569E58124FCF5813A
:10083000C057C058C059C05A90000075F08074432A
:10084000121492AE82AF83AAF0FBE58124FCF581FD
:10085000C006C007C002C0038566828567838568BD
:10086000F0E569121540AA82AB83ACF0FDE5812466
:10087000FCF581C05BC05CC05DC05E8A828B838CEE
:10088000F0ED121540AA82AB83ACF0FDE58124FCAB
:10089000F581C002C003C004C00590F4FC75F032BD
:1008A0007434121492AA82AB83ACF0FDE58124FC6F
:1008B000F581E4C0E0C0E0C0E07440C0E08A828B13
:1008C000838CF0ED1216A885823B85833C85F03D34
:1008D000F53EE58124FCF58175820A12069AAE8206
:1008E000AF83AAF0FB8E2B8F2C8A2D8B2E75820C5A
:1008F00012069AAA82AB83ACF0FD8A338B348C3516
:100900008D36C043C044C045C046852B82852C83AC
:10091000852DF0E52E121462AA82E58124FCF58172
:10092000EA700C852B43852C44852D45852E46C0C9
:1009300047C048C049C04A8533828534838535F035
:10094000E536121462AA82E58124FCF581EA700C76
:1009500085334785344885354985364A758C007519
:100960008A00C28D75820A120689120638E58285D0
:1009700083F045F070F4D28C75820C1206897A00EF
:100980007B00C002C003120638E5828583F0D003E5
:10099000D00245F0600C108D0280E70ABA00E30B2C
:1009A00080E0C28C8A828B8312169BAA82AB83ACB6
:1009B000F0FDC002C003C004C00590000075F080C7
:1009C000744712149285826685836785F068F5699D
:1009D000E58124FCF581858C82121535AE82AF83CA
:1009E000AAF0FBC006C007C002C00390000075F06B
:1009F000807443121492AA82AB83ACF0FDE581248B
:100A0000FCF581C002C003C004C00585668285670D
:100A1000838568F0E5691215408582668583678560
:100A2000F068F569E58124FCF581AE8A7F008E824D
:100A30008F8312169BAE82AF83AAF0FBC006C0075D
:100A4000C002C0038566828567838568F0E5691208
:100A50001540AA82AB83ACF0FDE58124FCF581C092
:100A600002C003C004C00590F4FC75F03274341267
:100A70001492AA82AB83ACF0FDE58124FCF581C021
:100A800002C003C004C00590C80075F0AF744812DE
:100A9000149285826685836785F068F569E581240F
:100AA000FCF581C03BC03CC03DC03E90000075F0ED
:100AB000FA7444121492AE82AF83AAF0FBE581244B
:100AC000FCF581C006C007C002C003856682856749
:100AD000838568F0E5691216A8858253858354855D
:100AE000F055F556E58124FCF581C03BC03CC03D86
:100AF000C03E900000E4F5F07440121492AE82AF54
:100B000083AAF0FBE58124FCF581C006C007C00282
:100B1000C00390000075F080743F1216A885823FD4
:100B200085834085F041F542E58124FCF581C03B99
:100B3000C03CC03DC03E90000075F0FA74431214F2
:100B400092AE82AF83AAF0FBE58124FCF5818E8210
:100B50008F838AF0EB121690AA82AB83C002C00387
:100B600012043AD003D00285334F85345085355175
:100B70008536528A828B8312043A852B4B852C4C06
:100B8000852D4D852E4E752301D2009000EB75F01A
:100B90008012050F74F3C0E07404C0E07435C0E047
:100BA000743FC0E08547828548838549F0E54A1255
:100BB000149285826685836785F068F569E58124EE
:100BC000FCF58174F3C0E07404C0E07435C0E074D7
:100BD0003FC0E08543828544838545F0E546121495
:100BE00092AC82AD83AAF0FBE58124FCF581C05371
:100BF000C054C055C056C066C067C068C069C00454
:100C0000C005C002C00374FBC0E07400C0E0748083
:100C1000C0E0745FC0E07400C0E07440C0E0121631
:100C20004AE58124EEF581752302D20090005F75BC
:100C3000F04012050F74F3C0E07404C0E07435C0D6
:100C4000E0743FC0E0854F828550838551F0E552C6
:100C500012149285826685836785F068F569E5815F
:100C600024FCF58174F3C0E07404C0E07435C0E086
:100C7000743FC0E0854B82854C83854DF0E54E1274
:100C8000149285826A85836B85F06CF56DE581240D
:100C9000FCF581C03BC03CC03DC03E90000075F0FB
:100CA0007A7444121492AC82AD83AAF0FBE58124DD
:100CB000FCF581C053C054C055C056C066C067C063
:100CC00068C069C06AC06BC06CC06DC03FC040C026
:100CD00041C042C004C005C002C003740EC0E0742D
:100CE00001C0E07480C0E01215AEE58124E9F58111
:100CF0008557828558838559F0E55A1217C7858232
:100D00008C855B82855C83855DF0E55E1217C78507
:100D1000828A308403020DD9745BC0E07401C0E0A4
:100D20007480C0E0745FC0E07400C0E07440C0E054
:100D300012164AE58124FAF581752301D20090004C
:100D40005F75F04012050F746CC0E07401C0E07470
:100D500080C0E0745FC0E07400C0E07440C0E01286
:100D6000164AE58124FAF581752302D20090005FCE
:100D700075F04012050F90012C12043AC03FC0409C
:100D8000C041C042900D1875F08F744D1216A8AA7C
:100D900082AB83ACF0FDE58124FCF581C002C00389
:100DA000C004C005747DC0E07401C0E07480C0E080
:100DB000745FC0E07400C0E07440C0E012164AE501
:100DC0008124F6F581752302D20090005F75F04012
:100DD00012050F90138812043A20836C748BC0E0C4
:100DE0007401C0E07480C0E0745FC0E07400C0E0D3
:100DF0007440C0E012164AE58124FAF5817523019A
:100E0000D20090005F75F04012050FC03FC040C097
:100E100041C042749CC0E07401C0E07480C0E074C2
:100E20005FC0E07400C0E07440C0E012164AE58183
:100E300024F6F581752302D20090005F75F0401210
:100E4000050F90138812043A30820302143174ADF6
:100E5000C0E07401C0E07480C0E0745FC0E0740062
:100E6000C0E07440C0E012164AE58124FAF58175AD
:100E70002301D20090005F75F04012050F74BEC0D0
:100E8000E07401C0E07480C0E0745FC0E07400C032
:100E9000E07440C0E012164AE58124FAF58175231A
:100EA00002D20090005F75F04012050F90000A1208
:100EB000043A74CFC0E07401C0E07480C0E0745F95
:100EC000C0E07400C0E07440C0E012164AE581241E
:100ED000FAF581752302D20090005F75F04012058B
:100EE0000F90000A12043A74E0C0E07401C0E0748C
:100EF00080C0E0745FC0E07400C0E07440C0E012E5
:100F0000164AE58124FAF581752302D20090005F2C
:100F100075F04012050F90000A12043A74F1C0E017
:100F20007401C0E07480C0E0745FC0E07400C0E091
:100F30007440C0E012164AE58124FAF58175230257
:100F4000D20090005F75F04012050F90000A120465
:100F50003A7402C0E07402C0E07480C0E0745FC004
:100F6000E07400C0E07440C0E012164AE58124FA43
:100F7000F581752302D20090005F75F04012050FD5
:100F800090000A12043A7413C0E07402C0E0748046
:100F9000C0E0745FC0E07400C0E07440C0E01216AE
:100FA0004AE58124FAF581752302D20090005F752D
:100FB000F04012050F90000A12043A7424C0E07445
:100FC00002C0E07480C0E0745FC0E07400C0E074F0
:100FD00040C0E012164AE58124FAF581752302D259
:100FE0000090005F75F04012050F90000A12043A5D
:100FF0007435C0E07402C0E07480C0E0745FC0E08B
:101000007400C0E07440C0E012164AE58124FAF58D
:1010100081752302D20090005F75F04012050F9099
:10102000000A12043A7446C0E07402C0E07480C042
:10103000E0745FC0E07400C0E07440C0E012164A83
:10104000E58124FAF581752302D20090005F75F0E6
:101050004012050F90000A12043A7457C0E074025F
:10106000C0E07480C0E0745FC0E07400C0E0744011
:10107000C0E012164AE58124FAF581752302D200F8
:1010800090005F75F04012050F90000A12043A7448
:1010900068C0E07402C0E07480C0E0745FC0E074B7
:1010A00000C0E07440C0E012164AE58124FAF581E0
:1010B000752302D20090005F75F04012050F90007A
:1010C0000A12043A7479C0E07402C0E07480C0E08F
:1010D000745FC0E07400C0E07440C0E012164AE5DE
:1010E0008124FAF581752302D20090005F75F040EB
:1010F00012050F90000A12043A748AC0E07402C00C
:10110000E07480C0E0745FC0E07400C0E07440C070
:10111000E012164AE58124FAF581752302D2009087
:10112000005F75F04012050F90000A12043A749B9C
:10113000C0E07402C0E07480C0E0745FC0E074007E
:10114000C0E07440C0E012164AE58124FAF58175CA
:101150002302D20090005F75F04012050F90000A44
:1011600012043A74ACC0E07402C0E07480C0E07451
:101170005FC0E07400C0E07440C0E012164AE58130
:1011800024FAF581752302D20090005F75F04012B9
:10119000050F90000A12043A74BDC0E07402C0E06A
:1011A0007480C0E0745FC0E07400C0E07440C0E0D0
:1011B00012164AE58124FAF581752302D2009000C7
:1011C0005F75F04012050F90000A12043A9007D0A4
:1011D00012043A74CEC0E07402C0E07480C0E074BF
:1011E0005FC0E07400C0E07440C0E012164AE581C0
:1011F00024FAF581752301D20090005F75F040124A
:10120000050F74DFC0E07402C0E07480C0E0745F5A
:10121000C0E07400C0E07440C0E012164AE58124CA
:10122000FAF581752302D20090005F75F040120537
:101230000F9003E812043A74F0C0E07402C0E07446
:1012400080C0E0745FC0E07400C0E07440C0E01291
:10125000164AE58124FAF581752301D20090005FDA
:1012600075F04012050F7401C0E07403C0E0748093
:10127000C0E0745FC0E07400C0E07440C0E01216CB
:101280004AE58124FAF581752302D20090005F754A
:10129000F04012050F9003E812043A7412C0E07493
:1012A00003C0E07480C0E0745FC0E07400C0E0740C
:1012B00040C0E012164AE58124FAF581752301D277
:1012C0000090005F75F04012050F7423C0E07403B6
:1012D000C0E07480C0E0745FC0E07400C0E074409F
:1012E000C0E012164AE58124FAF581752302D20086
:1012F00090005F75F04012050F9003E812043A74F5
:1013000034C0E07403C0E07480C0E0745FC0E07477
:1013100000C0E07440C0E012164AE58124FAF5816D
:10132000752301D20090005F75F04012050F7447DD
:10133000C0E07403C0E07480C0E0745FC0E074007B
:10134000C0E07440C0E012164AE58124FAF58175C8
:101350002302D20090005F75F04012050F9003E861
:1013600012043A7458C0E07403C0E07480C0E074A2
:101370005FC0E07400C0E07440C0E012164AE5812E
:1013800024FAF581752301D20090005F75F04012B8
:10139000050F7469C0E07403C0E07480C0E0745F3E
:1013A000C0E07400C0E07440C0E012164AE5812439
:1013B000FAF581752302D20090005F75F0401205A6
:1013C0000F9003E812043A747AC0E07403C0E0742A
:1013D00080C0E0745FC0E07400C0E07440C0E01200
:1013E000164AE58124FAF581752301D20090005F49
:1013F00075F04012050F748BC0E07403C0E0748078
:10140000C0E0745FC0E07400C0E07440C0E0121639
:101410004AE58124FAF581752302D20090005F75B8
:10142000F04012050F9003E812043A90138812045A
:101430003A9001F412043A0208D820F71430F61456
:101440008883A88220F507E6A88375830022E280BE
:10145000F7E49322E022E4AC83AB82FAF9748E02C3
:1014600017D8FFA8811818121800D2D133E6400708
:1014700030E70B7582002220E70675820122C2D177
:101480001217E2E97003F5822220D101B3E433F5AB
:1014900082221218ADBC000302184CEF60FA30D55E
:1014A00002B2D1E583B4FF03021862E582B4FF0300
:1014B000021862258340072482400B02184C2483C3
:1014C000145003021862F582EA8DF0A4A8F0EA8EA7
:1014D000F0A428F8E435F0F9EB8DF0A428E935F014
:1014E000F9E433CA8FF0A429F9EA35F0FAEBF88E63
:1014F000F0A429F9EA35F0FAE433FBEC8DF0A429E5
:10150000F9EA35F0FAE43BFBE88FF0A42AFAEB3570
:10151000F0FBE433CCFD8EF0A42AFAEB35F0FBE4CB
:101520003CFCED8FF0A42BFBEC35F0FC20E7031224
:10153000187A02182BE4AC82FBFAF974860217D8E9
:101540001218AD7900E583B58202800D50031218A0
:10155000DBE583C395821218F5E5D0C465D020E1A0
:1015600017EA2DFAEB3EFBEC3FFC50097401121810
:10157000F5EC4480FC02182BC3EA9DFAEB9EFBECD1
:101580009FFC500FC3E499F9E49AFAE49BFBE49CB6
:10159000FCB2D112187A02182B0222C485827C85F3
:1015A000837D85F07E85107F901599021D17C008F8
:1015B000858108E50824FBF57FE50824FBF8867C97
:1015C00008867D08867E901599121D17D008221076
:1015D000980280FBAA998A82C0021222C4D0028A91
:1015E000822220F71030F6118883A88220F507F6B2
:1015F000A88375830022F280F7F022AA82AB09AC9F
:101600000AAD0B8B828C838DF0EA1215E20509E49A
:10161000B50902050A2285820985830A85F00B85B2
:101620000C7C850D7D850E7E850F7F9015FB121D30
:1016300017AA82AB83AC09AD0AAE0B8C828D838E68
:10164000F0E41215E28A828B8322C008858108E5C6
:101650000824F8F57FE50824FBF8860908860A08BF
:10166000860BE50824F8F8867C08867D08867E903F
:1016700015FB121D17AA82AB83AC09AD0AAE0B8C09
:10168000828D838EF0E41215E28A828B83D0082249
:101690007F8E1222DBF58385F08222AC83AB827AC7
:1016A000007900748E0223091218AD30D502B2D130
:1016B000BF0009BC000302186F021862BC000302DD
:1016C000184CE583B4FF0BE582B4FF0302186F02E8
:1016D000184CE582B4FF03021862C39583500724B7
:1016E0007F400B02184C2480145003021862C0E0A3
:1016F000E4CCCBCAF98D118E128F13EF54F0C4F5E0
:10170000147583068514F0EB84F582E9C4F9EAC404
:10171000FAEBC4FBEC540FC47803D6FC18EBD6FBF1
:1017200018EAD6FA8582F0EDA4A8F0FD8582F0EEE5
:10173000A428FEE435F0F88582F0EFA428FFE43514
:10174000F0F8E99DF9EA9EFAEB9FFBEC98FCAD11ED
:10175000AE12AF1330E7101582E92DF9EA3EFAEB2D
:101760003FFBE43CFC80EDC082D58398C3E933F9AC
:10177000EA33FAEB33FBEC33FCC3E99DEA9EEB9FC3
:10178000EC9400B3E413F9D002D0E0C44AFAD003D9
:10179000D0E0C44BFBD004D0E0F5F0540FC44CFCB7
:1017A000D082158230F40FD3EC13FCEB13FBEA1359
:1017B000FAE913F90582E930E70A74012AFAE43BF1
:1017C000FBE43CFC0218437F861222DBF58222FCFC
:1017D000ABF0AA83A982749EC2D1F58212187A0254
:1017E000182B7901AA82E68F82B5821318E6B5F02C
:1017F0000E18E6B5830918E68A82B58202790022BE
:10180000B4800FE5F0700AE5837006E58270027F10
:1018100000EFB6801518B6001018B6000B18B60009
:101820000608080876002208080822B98003EA138F
:10183000B34010EA2401FAE43BFBE43CFC50047C96
:10184000800582BC000EBB000BBA0008E4F5F0F581
:1018500083F58222A2D1E582138CF092F78B838AE2
:101860008222E4F583F58275F080F4A2D11322E49C
:10187000F583F58275F0C0747F227804EC7011E571
:101880008224F8500AF582E4C9CACBFCD8EF22ECD6
:101890007820058220E713D5820122C3E933F9EAD3
:1018A00033FAEB33FBEC33FCD8EA158222AA82AB85
:1018B00083A2F73392D16002D2F7F582ACF0E581D2
:1018C00024F9F8E6FD08E6FE0886F008E6A2F733FC
:1018D00092D56002D2F7F583AFF022E582C583F599
:1018E00082A2D133A2D592D11392D5ECCFFCEBCE0C
:1018F000FBEACDFA226040F82582500274FFF5829F
:10190000E824F8501ECCCBCAF9E4CC24F85014CB10
:10191000CAF9E4CB24F8500BCAF9E4CA24F85003FE
:1019200079002224086010F8C3EC13FCEB13FBEAE7
:1019300013FAE913F9D8F122AA827449C0E07419A4
:10194000C0E0C06EC06F8A82220575E4B5750205DD
:101950007622AA8274302AFA24C6500A74072AFA18
:101960003001034302208A82021938E582FAC45406
:101970000FF582C002121952D002740F5AF582027A
:101980001952AA70AB71AC72AD73AE74757B20EE58
:101990002EFEED235401FF4206EA2AFAEB33FBEC5C
:1019A00033FCED33FDC3EE95774008EEC39577FE2B
:1019B000430201D57BD98A708B718C728D738E74C2
:1019C00022788CE624D075F00AA4FA788DE624D02B
:1019D0002AFA788B8603BB2D04C3E49AFA75770143
:1019E000C3E464808AF063F08095F05029757B032E
:1019F0008A0374F6257B401C0577E57B142480F868
:101A0000E57B2480F98704A604772E1BEBFA60049B
:101A1000057B80DE8B02EA30E70D788186037882D1
:101A2000A6037881762E0AE579600AE57904FB251C
:101A300077F5778005300C02057778808603E4BB64
:101A40002D0104FB700620070330080205773005DE
:101A500003021B08300657EB600C75822DC0021282
:101A60001938D002801C30070C75822BC002121965
:101A700038D002800D30080A758220C00212193851
:101A8000D00278818604BC2E0C758230C0021219F7
:101A900038D0021578AC781578C3E5779C400302FE
:101AA0001B4C758230C002121938D00280E7AC7826
:101AB0001578C3E5779C500C758220C00212193846
:101AC000D00280EA78808604BC2D0C75822DC0027D
:101AD000121938D002801C30070C75822BC00212FC
:101AE0001938D002800D30080A758220C002121900
:101AF00038D00278818604BC2E52758230C0021222
:101B00001938D00215788044EB600E75822DC00222
:101B1000121938D0021578802030070E75822BC03C
:101B200002121938D0021578800F30080C75822007
:101B3000C002121938D002157878818603BB2E0CAA
:101B4000758230C002121938D0021578757B01C237
:101B50000EE57B2480F88603BB4503021C09BB2EDF
:101B6000348A03C3E464808BF063F08095F0500FF7
:101B7000758230C003121938D0031B8B0280E48BAE
:101B800002D20EE5797038200C03021C0975822EF2
:101B90001219388074300E278A03EB30E71FC3E434
:101BA00064808579F063F08095F0500C758230C0C8
:101BB00003121938D00315790B8B0280DD8B0230AC
:101BC0000E0EC3E464808579F063F08095F05021B7
:101BD000E57B2480F886038B82C002121938D0027C
:101BE000300E0EE57B2480F88603BB2E02800215A2
:101BF000791578C3E464808579F063F08095F040CE
:101C000003200E05057B021B51C3E464808579F037
:101C100063F08095F0500A7582301219381579807A
:101C2000E830050FAA781578EA6008758220121945
:101C30003880F122E5797003300C0D74072579FAAC
:101C4000E578C39AF5788006E57824FAF578757B0F
:101C50000078808602BA2B0F20070C78807620202F
:101C60000805757B010578200519AA78C3E464800E
:101C70008AF063F08095F0500A75822012193815A9
:101C80007880E7C20EE57B2480F88602BA000280E5
:101C900069BA451F3001027665C3E464808579F036
:101CA00063F08095F0500A758230121938157980EA
:101CB000E8D20EC3E57B9402E433FA7014EA700EA6
:101CC000C3E464808579F063F08095F04003300EC2
:101CD00016E57B2480F886028A82121938E57B2477
:101CE000FD50121579800E7402B57B09300C067513
:101CF000822E121938057B021C85300519AA78C37B
:101D0000E464808AF063F08095F0500A75822012B6
:101D10001938157880E72285826E85836FE4F57522
:101D2000F576AA7CAB7DAC7E8A828B838CF0121414
:101D30003AFD74012AF57CE43BF57D8C7EEDFA706A
:101D4000030222BDBA250280030222B5C205C206E3
:101D5000C207C208C209C20AC20BC20CC202C20335
:101D6000C2047577007578007579FFAB7CAC7DADEA
:101D70007E8B828C838DF012143AFAA3AB82AC83F3
:101D80008B7C8C7D8D7EBA25078A821219388092D1
:101D90008A06BE3000402E8A06EE24C6402774FF15
:101DA000B57913E57875F00AA4FEEA24D02EF5780B
:101DB00070BFD20680BBE57975F00AA4FEEA24D094
:101DC0002EF57980ACBA2E0A74FFB579A475790026
:101DD000809F8A06BE6100400E8A06EE2485400779
:101DE0005302DFD2018002C201BA20028075BA23F9
:101DF00003021E72BA2A03021E77BA2B02805FBA50
:101E00002D028055BA4202805FBA4303021EBCBA5B
:101E10004403021FF7BA4503022011BA4603022009
:101E20000DBA4703022015BA4903021FF7BA4C0244
:101E3000803BBA4E03022019BA4F03021FFEBA506C
:101E400003021F90BA5303021EE0BA550302200397
:101E5000BA5803022008022043D205021D71D2079E
:101E6000021D71D208021D71D20A021D71D20B022D
:101E70001D71D20C021D7174FFB57920300A0BE57B
:101E80007F14F8887F8678021D71E57F24FEF8882C
:101E90007F8606088607188E78021D71300A0BE5CA
:101EA0007F14F8887F8679021D71E57F24FEF8880B
:101EB0007F8606088607188E79021D71300A0AE5AA
:101EC0007F14F8887F8602800FE57F24FEF8887FE4
:101ED0008603088604188B028A8212193802204869
:101EE000E57F24FDF8887F860308860408860518A8
:101EF000188B708C718D728B828C838DF012244CB8
:101F0000AB82AC838B7A74FFB57903857A7920052F
:101F10001DC3E57A95785016E578C3957AF578ABC8
:101F2000781578EB600875822012193880F1857079
:101F3000828571838572F012143AFBFA6029AB79BD
:101F40001579C3E464808BF063F08095F050188AB3
:101F500082121938AB70AC71AD720BBB00010C8BE7
:101F6000708C718D7280C7200503022048C3E57A0A
:101F700095784003022048E578C3957AF578AB78E8
:101F80001578EB700302204875822012193880EE14
:101F9000E57F24FDF8887F860308860408860518F7
:101FA000188B708C718D72E572FB30E7047A438078
:101FB00013EB546060047A50800AEB30E6047A49EF
:101FC00080027A588A82C00212193875823A121930
:101FD00038758230121938758278121938D002BAE1
:101FE0004902800BBA5002800685718212196B85F6
:101FF000708212196B8051D20975770A804A757701
:1020000008804575770A8040757710803BD2028042
:1020100037D2038033D204802FE57F24FDF8887FF8
:10202000860308860408860518188B708C718D72DB
:102030008B828C838DF0E5751215E2A3E57612157F
:10204000E280058A82121938200206200303300438
:1020500070E57F24FCF8887F8603088604088605DF
:102060000886061818188B708C718D728E73E57047
:10207000E571E572E5738B828C838DF0EE12232D72
:1020800074FFB57903757906300427747F5573FBA7
:102090008B74E574EB2BFB8B74E57230E7067401EF
:1020A0004574F574E57424684006749925744002FB
:1020B000D203300306121C34021D221219C1021D64
:1020C00022E5777003021D227B85300A2BE57F1401
:1020D000F8887FE6FC3395E0FDFEFF8C708D718EF5
:1020E000728F7320095EAC707D007E007F008C7063
:1020F0008D718E728F73804C300B1FE57F24FCF83E
:10210000887F86040886050886060886071818183A
:102110008C708D718E728F73802AE57F24FEF88813
:102120007F860408860518ED3395E0FEFF8C708DE0
:10213000718E728F7320090CAC70AD717E007F00C0
:102140008E728F73300C43E5704571457245736034
:10215000397408B5770C758230C003121938D00372
:1021600080287410B57723758230C003121938D0D7
:102170000330010C758278C003121938D003800A2D
:10218000758258C003121938D003300925AC70ADE0
:1021900071AE72E573FF30E717C3E49CFCE49DFD6C
:1021A000E49EFEE49FFF8C708D718E728F738002AF
:1021B000C209757A00D20D8B00757400C000121927
:1021C00082D000200D0DE574C4FCE6FD4CF61888A5
:1021D000038002A674057AB20DE57045714572451B
:1021E0007370D68803E578700375780120061A208D
:1021F0000517E57A04FCC39578500E758220C0035C
:10220000121938D003157880E930090E75822DC077
:1022100003121938D00315788024E57A602030073E
:102220000E75822BC003121938D0031578800F3039
:10223000080C758220C003121938D00315782005C8
:102240001EAC781578C3E57A9C50273006047C30A4
:1022500080027C208C82C003121938D00380E2C334
:10226000E57A95785009E578C3957AF57880037515
:1022700078008B00AB7A157AEB6022B20D200D0A44
:1022800008E6C4540FFB8B7480078603740F5BF55C
:1022900074857482C000121952D00080D7200503C3
:1022A000021D22AB781578EB7003021D2275822087
:1022B00012193880EE8A82121938021D2285758221
:1022C00085768322AA82BA0A0810990280FB759942
:1022D0000D10990280FB8A99227F9E12247430D1BE
:1022E0000302184CC3EF9582500974FFF5F0F58393
:1022F000F5822279001218F589828A838BF0EC220C
:10230000FCABF0AA83A982749EF582C2D1EC30E7BF
:1023100016D2D1E9F42401F9EAF43400FAEBF434EA
:1023200000FBECF43400FC12187A02182BC0E0F821
:102330004582458345F07009F5F0FBFCFDFE022364
:10234000FBE823A2F792E0F8A982AA83D2F7ABF0C8
:102350007C007E07C3749798404074FF2EFE740A79
:1023600089F0A4F985F082740A8AF0A4FA85F083D2
:10237000740A8BF0A4FB740529F9EA3582FAEB356F
:1023800083FB740035F0FCC3EC13FCEB13FBEA1386
:10239000FAE913F908EC70EF80BAE8C3947FF88B80
:1023A000838EF0E4FBFCFDFEFF08C3E933F9EA335A
:1023B000FAE58333F583EB3BD4FBEC3CD4FCED3DF9
:1023C000D4FDEE3ED4FEEF3FD4FF602D05F0740542
:1023D0002BD4FBE43CD4FCE43DD4FDE43ED4FEE449
:1023E0003FD4FF758204C3EF13FFEE13FEED13FD20
:1023F000EC13FCEB13FBD582EDD8AF7880D0E02056
:10240000E704762B8002762D087906E7C4540F4442
:1024100030F608B90603762E08E7540F4430F60864
:1024200019B902E7764508E5F020E704762B800429
:10243000762DF4040875F00A844430F608E5F0447B
:1024400030F608E4F690008075F04022AA82AB8353
:10245000ACF07D007E008A828B838CF012143AFFF0
:10246000A3AA82AB83EF60070DBD00EA0E80E78D63
:10247000828E8322AA82AB83A2F73392D16002D2EA
:10248000F7F582ACF0220000000000000000000020
:00000001FF
