:0300000002016298
:0100030032CA
:03000B00020110DF
:0100130032BA
:01001B0032B2
:0100230032AA
:03002B0002012CA3
:10002E00C00078B10000D8FCD00022C000C0017919
:10003E002D78A6D8FED9FADAF6D001D00022D2B3A6
:10004E0012002EC2B322A2E792B7A2E692B6A2E5A2
:10005E0092B5A2E492B412004C12002EA2E392B713
:10006E00A2E292B6A2E192B5A2E092B412004C22A4
:10007E00D2B2020054C2B2020054C2B374331200A0
:10008E008374331200837432120083742812008337
:10009E00740C1200837401120083C0027A021200E3
:1000AE0039D00222E493600612007EA380F6224429
:1000BE00404480020083C0E0E8C4540F4430120074
:1000CE007EE8540F443012007ED0E02254696D65F4
:1000DE002020203A20203A20202000416C61726DB1
:1000EE002020203A2020202000E58954F04401F5FC
:1000FE0089758CEA758AE875F4EA75F2E8D2A9D2A8
:10010E008C22B2913275C80075CDA975CC9A75CB7B
:10011E00A975CA9AE4F530F531D2ADD2CA22C2CF52
:10012E00B290C0E0C0D00530E53070020531E53048
:10013E00B4E81CE531B40017D200B28CE4F530F50A
:10014E0031E537308004240180022499D4F537D06C
:10015E00D0D0E03275817F1200F712011375E600E0
:10016E0075E700D2AF120088C0E07401141200BF10
:10017E00D0E0C083C082C0E09000DA1200B2D0E0BE
:10018E00D082D083C0E07401141200BDD0E0C083D1
:10019E00C082C0E09000E91200B2D0E0D082D083DD
:1001AE00D2007535127536587537007533127534A1
:1001BE000220C51CC0027A32120039D00220C510AE
:1001CE0030C5FDC2CAE4F530F531F537D2CA800329
:1001DE003000DEC200C0E07401141200BDD0E0C0D9
:1001EE0083C082C0E09000E91200B2D0E0D082D08D
:1001FE0083C0E07407141200BDD0E0C000A8331213
:10020E0000C4D000C0E0740A141200BDD0E0C000DB
:10021E00A8341200C4D000C0E07401141200BFD084
:10022E00E0C083C082C0E09000DA1200B2D0E0D00D
:10023E0082D083C0E07406141200BFD0E0C000A8C4
:10024E00351200C4D000C0E07409141200BFD0E013
:10025E00C000A8361200C4D000C0E0740C14120006
:10026E00BFD0E0C000A8371200C4D000E537B459A3
:10027E00228000753700E5362401D4F536B46013BC
:10028E00753600E5352401D4F535B4130675350100
:10029E000202E98000D283308302800FE53524010B
:1002AE00D4F535B413057535018000D28630860E2F
:1002BE00C0027A32120039D002308602801DE53635
:1002CE002401D4F536B46013753600E5352401D417
:0E02DE00F535B413067535010202E90201BFC1
:00000001FF
