:030000000203EE0A
:0100030032CA
:03000B000203836A
:0100130032BA
:01001B0032B2
:0100230032AA
:03002B000203A825
:10002E00C00078B10000D8FCD00022C000C0017919
:10003E002D78A6D8FED9FADAF6D001D00022D2B3A6
:10004E0012002EC2B322A2E792B7A2E692B6A2E5A2
:10005E0092B5A2E492B412004C12002EA2E392B713
:10006E00A2E292B6A2E192B5A2E092B412004C22A4
:10007E00D2B2020054C2B2020054C2B374331200A0
:10008E008374331200837432120083742812008337
:10009E00740C1200837401120083C0027A021200E3
:1000AE0039D00222E493600612007EA380F6224429
:1000BE00404480020083C0E0E8C4540F4430120074
:1000CE007EE8540F443012007ED0E02254696D65F4
:1000DE00202020203A20203A2020202000416C6150
:1000EE00726D2020203A2020202000412000500058
:1000FE004F6E20004F66660020205245414C204135
:10010E004C41524D59202020002A2A2A2A2A2A2AD6
:10011E002A2A2A2A2A2A2A2A2A0020202020202097
:10012E0020202020202020202020002B20202020D6
:10013E002020202020202020202020002B2B2020BB
:10014E00202020202020202020202020002B2B2BA0
:10015E0020202020202020202020202020002B2B9B
:10016E002B2B202020202020202020202020002B80
:10017E002B2B2B2B20202020202020202020200065
:10018E002B2B2B2B2B2B202020202020202020201F
:10019E00002B2B2B2B2B2B2B202020202020202024
:1001AE0020002B2B2B2B2B2B2B2B20202020202009
:1001BE002020002B2B2B2B2B2B2B2B2B20202020EE
:1001CE00202020002B2B2B2B2B2B2B2B2B2B2020D3
:1001DE0020202020002B2B2B2B2B2B2B2B2B2B2BB8
:1001EE002020202020002B2B2B2B2B2B2B2B2B2BB3
:1001FE002B2B20202020002B2B2B2B2B2B2B2B2B98
:10020E002B2B2B2B202020002B2B2B2B2B2B2B2B7C
:10021E002B2B2B2B2B2B2020002B2B2B2B2B2B2B61
:10022E002B2B2B2B2B2B2B2B20002B2B2B2B2B2B46
:10023E002B2B2B2B2B2B2B2B2B2B002B2B2B2B2B2B
:10024E002B2B2B2B2B2B2B2B2B2B2B002B2B2B2B1B
:10025E002B2B2B2B2B2B2B2B2B2B2B20002B2B2B16
:10026E002B2B2B2B2B2B2B2B2B2B2B2020002B2B11
:10027E002B2B2B2B2B2B2B2B2B2B2B202020002B0C
:10028E002B2B2B2B2B2B2B2B2B2B2B202020200007
:10029E002B2B2B2B2B2B2B2B2B2B2B2020202020D7
:1002AE00002B2B2B2B2B2B2B2B2B2B2020202020F2
:1002BE0020002B2B2B2B2B2B2B2B2B2020202020ED
:1002CE002020002B2B2B2B2B2B2B2B2020202020E8
:1002DE00202020002B2B2B2B2B2B2B2020202020E3
:1002EE0020202020002B2B2B2B2B2B2020202020DE
:1002FE002020202020002B2B2B2B2B2020202020D9
:10030E00202020202020002B2B2B2B2020202020D3
:10031E0020202020202020002B2B2B2020202020CE
:10032E002020202020202020002B2B2020202020C9
:10033E00202020202020202020002B2020202020C4
:10034E0020202020202020202020002020202020BF
:10035E00202020202020202020202000E58954F07D
:10036E004401F589758CEA758AE475F4EA75F2E450
:10037E00D2A9D28C22200606300600C29132B2914A
:10038E003275C80075CDA975CC8675CBA975CA8690
:10039E00E4F530F531D2ADD2CA22C2CFB290C0E070
:1003AE00C0D00530E53070020531E530B4E81DE50A
:1003BE0031B40318D200B28CE4F530F531E53230A9
:1003CE00810524010203D72499D4F532D0D0D0E090
:1003DE0032740C120083C0027A32120039D002221B
:1003EE0075817F12036A12038F75E60075E700D2DE
:1003FE00AF120088D200C201C202C205753250751A
:10040E003329753409753530753609753700C0E0F6
:10041E007401141200BFD0E0C083C082C0E090010E
:10042E00061200B2D0E0D082D083C0E07401141264
:10043E0000BDD0E0C083C082C0E09001171200B2B0
:10044E00D0E0D082D083C0027AFA120039D002C036
:10045E00027AFA120039D002C0027AFA120039D0AA
:10046E0002C0027AFA120039D002C0027AFA1200E1
:10047E0039D002C0027AFA120039D002C0027AFADA
:10048E00120039D002C0027AFA120039D002C0022C
:10049E007AFA120039D002C0027AFA120039D0026A
:1004AE00C0027AFA120039D002C0027AFA1200396A
:1004BE00D002C0E07401141200BFD0E0C083C0822D
:1004CE00C0E09001281200B2D0E0D082D083C0E00C
:1004DE007401141200BDD0E0C083C082C0E0900150
:1004EE00281200B2D0E0D082D083C0027A3212003D
:1004FE0039D002C0E07401141200BFD0E0C083C036
:10050E0082C0E09001391200B2D0E0D082D083C018
:10051E00E07401141200BDD0E0C083C082C0E09030
:10052E0001391200B2D0E0D082D083C0027A3212EA
:10053E000039D002C0E07401141200BFD0E0C083B5
:10054E00C082C0E090014A1200B2D0E0D082D083C7
:10055E00C0E07401141200BDD0E0C083C082C0E0C0
:10056E0090014A1200B2D0E0D082D083C0027A321B
:10057E00120039D002C0E07401141200BFD0E0C0E6
:10058E0083C082C0E090015B1200B2D0E0D082D076
:10059E0083C0E07401141200BDD0E0C083C082C0DD
:1005AE00E090015B1200B2D0E0D082D083C0027A1C
:1005BE0032120039D002C0E07401141200BFD0E034
:1005CE00C083C082C0E090016C1200B2D0E0D08235
:1005DE00D083C0E07401141200BDD0E0C083C0828D
:1005EE00C0E090016C1200B2D0E0D082D083C00285
:1005FE007A32120039D002C0E07401141200BFD05A
:10060E00E0C083C082C0E090017D1200B2D0E0D085
:10061E0082D083C0E07401141200BDD0E0C083C04C
:10062E0082C0E090017D1200B2D0E0D082D083C0B3
:10063E00027A32120039D002C0E07401141200BFE7
:10064E00D0E0C083C082C0E090018E1200B2D0E034
:10065E00D082D083C0E07401141200BDD0E0C083FC
:10066E00C082C0E090018E1200B2D0E0D082D08362
:10067E00C0027A32120039D002C0E07401141200A6
:10068E00BFD0E0C083C082C0E090019F1200B2D004
:10069E00E0D082D083C0E07401141200BDD0E0C05F
:1006AE0083C082C0E090019F1200B2D0E0D082D011
:1006BE0083C0027A32120039D002C0E074011412E3
:1006CE0000BFD0E0C083C082C0E09001B01200B283
:1006DE00D0E0D082D083C0E07401141200BDD0E00F
:1006EE00C083C082C0E09001B01200B2D0E0D082D0
:1006FE00D083C0027A32120039D002C0E0740114E5
:10070E001200BFD0E0C083C082C0E09001C11200D1
:10071E00B2D0E0D082D083C0E07401141200BDD0FC
:10072E00E0C083C082C0E09001C11200B2D0E0D020
:10073E0082D083C0027A32120039D002C0E0740136
:10074E00141200BFD0E0C083C082C0E09001D2126C
:10075E0000B2D0E0D082D083C0E07401141200BD8C
:10076E00D0E0C083C082C0E09001D21200B2D0E0CF
:10077E00D082D083C0027A32120039D002C0E07427
:10078E0001141200BFD0E0C083C082C0E09001E32C
:10079E001200B2D0E0D082D083C0E07401141200F7
:1007AE00BDD0E0C083C082C0E09001E31200B2D0A1
:1007BE00E0D082D083C0027A32120039D002C0E07B
:1007CE007401141200BFD0E0C083C082C0E090015B
:1007DE00F41200B2D0E0D082D083C0E074011412C3
:1007EE0000BDD0E0C083C082C0E09001F41200B220
:1007FE00D0E0D082D083C0027A32120039D002C04B
:10080E00E07401141200BFD0E0C083C082C0E0903B
:10081E0002051200B2D0E0D082D083C0E074011481
:10082E001200BDD0E0C083C082C0E090020512006D
:10083E00B2D0E0D082D083C0027A32120039D00218
:10084E00C0E07401141200BFD0E0C083C082C0E0CB
:10085E009002161200B2D0E0D082D083C0E07401B4
:10086E00141200BDD0E0C083C082C0E09002161208
:10087E0000B2D0E0D082D083C0027A32120039D0DA
:10088E0002C0E07401141200BFD0E0C083C082C069
:10089E00E09002271200B2D0E0D082D083C0E07484
:1008AE0001141200BDD0E0C083C082C0E0900227C8
:1008BE001200B2D0E0D082D083C0027A3212003958
:1008CE00D002C0E07401141200BFD0E0C083C08219
:1008DE00C0E09002381200B2D0E0D082D083C0E0E7
:1008EE007401141200BDD0E0C083C082C0E090023B
:1008FE00381200B2D0E0D082D083C0027A32120019
:10090E0039D002C0E07401141200BFD0E0C083C021
:10091E0082C0E09002491200B2D0E0D082D083C0F3
:10092E00E07401141200BDD0E0C083C082C0E0901C
:10093E0002491200B2D0E0D082D083C0027A3212C5
:10094E000039D002C0E07401141200BFD0E0C083A1
:10095E00C082C0E090025A1200B2D0E0D082D083A2
:10096E00C0E07401141200BDD0E0C083C082C0E0AC
:10097E0090025A1200B2D0E0D082D083C0027A32F6
:10098E00120039D002C0E07401141200BFD0E0C0D2
:10099E0083C082C0E090026B1200B2D0E0D082D051
:1009AE0083C0E07401141200BDD0E0C083C082C0C9
:1009BE00E090026B1200B2D0E0D082D083C0027AF7
:1009CE0032120039D002C0E07401141200BFD0E020
:1009DE00C083C082C0E090027C1200B2D0E0D08210
:1009EE00D083C0E07401141200BDD0E0C083C08279
:1009FE00C0E090027C1200B2D0E0D082D083C00260
:100A0E007A32120039D002C0E07401141200BFD045
:100A1E00E0C083C082C0E090028D1200B2D0E0D060
:100A2E0082D083C0E07401141200BDD0E0C083C038
:100A3E0082C0E090028D1200B2D0E0D082D083C08E
:100A4E00027A32120039D002C0E07401141200BFD3
:100A5E00D0E0C083C082C0E090029E1200B2D0E00F
:100A6E00D082D083C0E07401141200BDD0E0C083E8
:100A7E00C082C0E090029E1200B2D0E0D082D0833D
:100A8E00C0027A32120039D002C0E0740114120092
:100A9E00BFD0E0C083C082C0E09002AF1200B2D0DF
:100AAE00E0D082D083C0E07401141200BDD0E0C04B
:100ABE0083C082C0E09002AF1200B2D0E0D082D0EC
:100ACE0083C0027A32120039D002C0E074011412CF
:100ADE0000BFD0E0C083C082C0E09002C01200B25E
:100AEE00D0E0D082D083C0E07401141200BDD0E0FB
:100AFE00C083C082C0E09002C01200B2D0E0D082AB
:100B0E00D083C0027A32120039D002C0E0740114D0
:100B1E001200BFD0E0C083C082C0E09002D11200AC
:100B2E00B2D0E0D082D083C0E07401141200BDD0E8
:100B3E00E0C083C082C0E09002D11200B2D0E0D0FB
:100B4E0082D083C0027A32120039D002C0E0740122
:100B5E00141200BFD0E0C083C082C0E09002E21247
:100B6E0000B2D0E0D082D083C0E07401141200BD78
:100B7E00D0E0C083C082C0E09002E21200B2D0E0AA
:100B8E00D082D083C0027A32120039D002C0E07413
:100B9E0001141200BFD0E0C083C082C0E09002F307
:100BAE001200B2D0E0D082D083C0E07401141200E3
:100BBE00BDD0E0C083C082C0E09002F31200B2D07C
:100BCE00E0D082D083C0027A32120039D002C0E067
:100BDE007401141200BFD0E0C083C082C0E0900345
:100BEE00041200B2D0E0D082D083C0E0740114129F
:100BFE0000BDD0E0C083C082C0E09003041200B2FA
:100C0E00D0E0D082D083C0027A32120039D002C036
:100C1E00E07401141200BFD0E0C083C082C0E09027
:100C2E0003151200B2D0E0D082D083C0E07401145C
:100C3E001200BDD0E0C083C082C0E0900315120048
:100C4E00B2D0E0D082D083C0027A32120039D00204
:100C5E00C0E07401141200BFD0E0C083C082C0E0B7
:100C6E009003261200B2D0E0D082D083C0E074018F
:100C7E00141200BDD0E0C083C082C0E090032612E3
:100C8E0000B2D0E0D082D083C0027A32120039D0C6
:100C9E0002C0E07401141200BFD0E0C083C082C055
:100CAE00E09003371200B2D0E0D082D083C0E0745F
:100CBE0001141200BDD0E0C083C082C0E0900337A3
:100CCE001200B2D0E0D082D083C0027A3212003944
:100CDE00D002C0E07401141200BFD0E0C083C08205
:100CEE00C0E09003481200B2D0E0D082D083C0E0C2
:100CFE007401141200BDD0E0C083C082C0E0900326
:100D0E00481200B2D0E0D082D083C0027A321200F4
:100D1E0039D002C0E07401141200BFD0E0C083C00D
:100D2E0082C0E09003591200B2D0E0D082D083C0CE
:100D3E00E07401141200BDD0E0C083C082C0E09008
:100D4E0003591200B2D0E0D082D083C0027A3212A0
:100D5E000039D002C0E07401141200BFD0E0C0838D
:100D6E00C082C0E09000DA1200B2D0E0D082D08310
:100D7E00C0E0740F141200BFD0E0C083C082C0E088
:100D8E009000F91200B2D0E0D082D083C0E074019E
:100D9E00141200BDD0E0C083C082C0E09000EB1200
:100DAE0000B2D0E0D082D083C0E0740C141200BD2B
:100DBE00D0E0C083C082C0E09000F91200B2D0E053
:100DCE00D082D083C0E0740E141200BDD0E0C08378
:100DDE00C082C0E09001021200B2D0E0D082D08377
:100DEE00C0E0740D141200BFD0E0C000A832120093
:100DFE00C4D000C0E0740A141200BFD0E0C000A836
:100E0E00331200C4D000C0E07407141200BFD0E04B
:100E1E00C000A8341200C4D000C0E0740714120041
:100E2E00BDD0E0C000A8351200C4D000C0E0740AE6
:100E3E00141200BDD0E0C000A8361200C4D000C20B
:100E4E00CAE4F530F531F532D2CA80033000F0C273
:100E5E0000C0E0740D141200BFD0E0C000A8321222
:100E6E0000C4D000C0E0740A141200BFD0E0C0006D
:100E7E00A8331200C4D000C0E07407141200BFD013
:100E8E00E0C000A8341200C4D000C0E074071412F1
:100E9E0000BDD0E0C000A8361200C4D000C0E0747F
:100EAE000A141200BDD0E0C000A8351200C4D00054
:100EBE00020EC1E532B45920753200E5332401D457
:100ECE00F533B46013753300E5342401D4F534B42E
:100EDE001306753401020F86D2A430A40EC0027A16
:100EEE0064120039D00230A402805CE5342401D4AF
:100EFE00F5346412600AE534B4134C75340180473E
:100F0E00B201200121C0E0740F141200BFD0E0C066
:100F1E0083C082C0E09000F91200B2D0E0D082D03F
:100F2E0083D203020F86C0E0740F141200BFD0E00C
:100F3E00C083C082C0E09000FC1200B2D0E0D0822C
:100F4E00D083C203020F86D2C530C50FC0027A64A9
:100F5E00120039D00230C503020F86E5332401D4C6
:100F6E00F533B46013753300E5342401D4F534B48D
:100F7E001306753401020F86D286208624C0027AAB
:100F8E0032120039D0022086183086FDE536240153
:100F9E00D4F53664126010E536B4135275360180FE
:100FAE004D020FFC020FFCB202200221D204C0E05F
:100FBE00740C141200BDD0E0C083C082C0E090005B
:100FCE00F91200B2D0E0D082D08302102DC0E074AE
:100FDE000C141200BDD0E0C083C082C0E09000FCB3
:100FEE001200B2D0E0D082D083C20402102DD28380
:100FFE0030830FC0027A32120039D00230830302DE
:10100E00102DE5352401D4F535B46013753500E5A2
:10101E00362401D4F536B4130675360102102DD2DE
:10102E0080208036C0027A32120039D00220802A07
:10103E003080FDB20520050302106BC0E0740E1463
:10104E001200BDD0E0C083C082C0E09000FE12004E
:10105E00B2D0E0D082D08302108A0210B4C0E07405
:10106E000E141200BDD0E0C083C082C0E090010219
:10107E001200B2D0E0D082D08302108AD291300515
:10108E0012E534B5360DE533B53508E503B5040381
:10109E000210A6C2060210B4D206C0027AFA1200DC
:0910AE0039D0020210B4020E5DFB
:00000001FF
