:0300000002016595
:0100030032CA
:03000B00020113DC
:0100130032BA
:01001B0032B2
:0100230032AA
:03002B0002012FA0
:10002E00C00078B10000D8FCD00022C000C0017919
:10003E002D78A6D8FED9FADAF6D001D00022D2B3A6
:10004E0012002EC2B322A2E792B7A2E692B6A2E5A2
:10005E0092B5A2E492B412004C12002EA2E392B713
:10006E00A2E292B6A2E192B5A2E092B412004C22A4
:10007E00D2B2020054C2B2020054C2B374331200A0
:10008E008374331200837432120083742812008337
:10009E00740C1200837401120083C0027A021200E3
:1000AE0039D00222E493600612007EA380F6224429
:1000BE00404480020083C0E0E8C4540F4430120074
:1000CE007EE8540F443012007ED0E02254696D65F4
:1000DE00202020203A20203A20202000416C6172FE
:1000EE006D2020203A202020206F6E00E58954F0EC
:1000FE004401F589758CEA758AE875F4EA75F2E8BB
:10010E00D2A9D28C22B2913275C80075CDA975CC08
:10011E009A75CBA975CA9AE4F530F531D2ADD2CA2B
:10012E0022C2CFB290C0E0C0D00530E530700205DB
:10013E0031E530B4E81CE531B40317D200B28CE4DB
:10014E00F530F531E532308004240180022499D453
:10015E00F532D0D0D0E03275817F1200FA1201163E
:10016E0075E60075E700D2AF120088C0E074011486
:10017E001200BFD0E0C083C082C0E09000DA12004F
:10018E00B2D0E0D082D083C0E0740F141200BFD082
:10019E00E0C0E07401141200BDD0E0C083C082C084
:1001AE00E09000EA1200B2D0E0D082D083C0E074BA
:1001BE0007141200BDD0E0C000A8331200C4D00056
:1001CE00C0E0740A141200BDD0E0C000A8341200C2
:1001DE00C4D000C0E0740C141200BDD0E0D2007583
:1001EE00320075333075340975370175361220C5F6
:1001FE001CC0027A32120039D00220C51030C5FD63
:10020E00C2CAE4F530F531F532D2CA80033000DED1
:10021E00C200C0E0740D141200BFD0E0C000A832BE
:10022E001200C4D000C0E0740A141200BFD0E0C0A7
:10023E0000A8331200C4D000C0E07407141200BF2F
:10024E00D0E0C000A8341200C4D000C0E07407147F
:10025E001200BDD0E0C000A8361200C4D000C0E02D
:10026E00740A141200BDD0E0C000A8371200C4D02A
:10027E00008000E5322401D4F532B46025753200D9
:10028E00E5332401D4F533B46018753300E5342416
:10029E0001D4F534B4130B753401E5352401540142
:0602AE00F535320201FCEF
:00000001FF
