:030000000207896B
:10000300C00078B10000D8FCD00022C000C0017944
:100013002D78A6D8FED9FADAF6D001D00022D2B3D1
:10002300120003C2B322A2E792B7A2E692B6A2E5F8
:1000330092B5A2E492B4120021120003A2E392B794
:10004300A2E292B6A2E192B5A2E092B412002122FA
:10005300D2B2020029C2B2020029C2B37433120021
:10006300587433120058743212005874281200580E
:10007300740C1200587401120058C0027A02120064
:100083000ED00222E4936006120053A380F62244AA
:10009300404480020058C0E0E8C4540F44301200CA
:0C00A30053E8540F4430120053D0E02208
:1000AF00C0E0C0D0C000C001C002E4F53AF53BF596
:1000BF003CF53DF53E7A20E535A2E779047832E646
:1000CF0033F608D9FA7905783AE636D4F608D9F92D
:1000DF00DAE5D002D001D000D0D0D0E022C0E0C00D
:1000EF00D0C000C001C002E4F53AF53BF53CF53D48
:1000FF00F53E7A20E535A2E779047832E633F60843
:10010F00D9FA7905783AC0D0E6243320E70224D013
:10011F0020E30224FDD0D033F608D9EADAD6D00294
:10012F00D001D000D0D0D0E022C0E0C0D0C000C0FD
:10013F0001C0027A207905C3783EE613C0D030E7BC
:10014F000224D030E30224FDF618D0D0D9EC790484
:10015F007835E613F618D9FADADBD002D001D000E1
:10016F00D0D0D0E022C0E0C0D0E5322536F532E560
:10017F00333537F533E5343538F534E5353539F57D
:10018F0035D0D0D0E022C0E0C0D0C3E5329536F5EF
:10019F0032E5339537F533E5349538F534E5359554
:1001AF0039F535D0D0D0E022C0E0C0D0C3E53295CC
:1001BF0036E5339537E5349538E53595399200D0E6
:1001CF00D0D0E022C0E0C0D0C3E5369532E53795F8
:1001DF0033E5389534E53995359200D0D0D0E0220B
:1001EF00C0E0C0D0C200C3E53695327014E5379534
:1001FF0033700EE53895347008E53995357002D2B5
:10020F0000D0D0D0E0221201EF2000030201D32250
:10021F001201EF2000030201B722C0E0C0F0C0D0EE
:10022F00C000C001C002C003E5328536F0A4F8A9B2
:10023F00F0E5338536F0A429F9E435F0FAE5328597
:10024F0037F0A429F9E5F03AFAE433FBE5348536C3
:10025F00F0A42AFAE5F03BFBE5338537F0A42AFA40
:10026F00E5F03BFBE5328538F0A42AFAE5F03BFBDD
:10027F00E5358536F0A42BFBE5348537F0A42BFB51
:10028F00E5338538F0A42BFBE5328539F0A42BFB41
:10029F008B358A3489338832D003D002D001D00015
:1002AF00D0D0D0F0D0E022C0E0C0D0C000C001C09C
:1002BF0002C003C0047C20E4F8F9FAFBC3E5323333
:1002CF00F532E53333F533E53433F534E53533F5CE
:1002DF0035E833F8E933F9EA33FAEB33FBC3E89542
:1002EF0036E99537EA9538EB95394013E89536F8A6
:1002FF00E99537F9EA9538FAEB9539FB433201DC8A
:10030F00BBD004D003D002D001D000D0D0D0E02297
:10031F0079DE78A6D8FED9FA438780759852759BF7
:10032F0000759AF4759B1E22D2A2C2A322C0E07957
:10033F00007A08E833F892A1D2A3A2A2E933F9C256
:10034F00A3DAF0D0E022C0E0740D14120094D0E0D4
:10035F00C000A83A120099D00022C0E0740B14120A
:10036F000092D0E0C000A83B120099D000C000A8B6
:10037F003A120099D000C0E0740B14120092D0E032
:10038F00C083C082C0E09004EA120087D0E0D08220
:10039F00D08322C0E0E8C4540F44301204D5E8548F
:1003AF000F44301204D5740D1204D5740A1204D5FB
:1003BF00D0E022C0027AFA12000ED002C0027AFAFE
:1003CF0012000ED002C0027AFA12000ED002C00242
:1003DF007AFA12000ED0022285303285313375340D
:1003EF000075350075369A75370175380075390007
:1003FF001202297536FF75370375380075390012EB
:10040F0002B675361175370175380075390012014E
:10041F009522853032853133753400753500753648
:10042F009A7537017538007539001202297536FF34
:10043F007537037538007539001202B675361175A8
:10044F003701753800753900120195753609753702
:10045F000075380075390012022975360575370099
:10046F007538007539001202B6753620753700756C
:10047F00380075390012017422200106300100C2C4
:10048F009122D291C0E0740114120094D0E0C08385
:10049F00C082C0E090050F120087D0E0D082D083D9
:1004AF00C0E0740114120092D0E0C083C082C0E09B
:1004BF00900668120087D0E0D082D083B2912212CA
:1004CF0003C2021122223099FDC299F59922E4E567
:1004DF003A9360061204D5A380F422200043656C82
:1004EF00736975733A202020202020204300224674
:1004FF00616872656E683A20202020202020460017
:10050F002020205448524553484F4C44202020204F
:10051F0020202020002020205245414C20544845C7
:10052F00524D4F202020002A2A2A2A2A2A2A2A2AF4
:10053F002A2A2A2A2A2A2A00202020202020202086
:10054F002020202020202020002B202020202020B1
:10055F00202020202020202020002B2B2020202096
:10056F0020202020202020202020002B2B2B20207B
:10057F002020202020202020202020002B2B2B2B60
:10058F00202020202020202020202020002B2B2B5B
:10059F002B2B2020202020202020202020002B2B40
:1005AF002B2B2B2B20202020202020202020002B25
:1005BF002B2B2B2B2B2B202020202020202020000A
:1005CF002B2B2B2B2B2B2B2B2020202020202020C4
:1005DF00002B2B2B2B2B2B2B2B2B202020202020C9
:1005EF0020002B2B2B2B2B2B2B2B2B2B20202020AE
:1005FF002020002B2B2B2B2B2B2B2B2B2B2B202093
:10060F00202020002B2B2B2B2B2B2B2B2B2B2B2B77
:10061F0020202020002B2B2B2B2B2B2B2B2B2B2B72
:10062F002B2B202020002B2B2B2B2B2B2B2B2B2B57
:10063F002B2B2B2B2020002B2B2B2B2B2B2B2B2B3C
:10064F002B2B2B2B2B2B20002B2B2B2B2B2B2B2B21
:10065F002B2B2B2B2B2B2B2B002020202020202053
:10066F00202020202020202020002020202020209B
:10067F002020202020202020202B00202020202080
:10068F002020202020202020202B2B002020202065
:10069F002020202020202020202B2B2B002020204A
:1006AF002020202020202020202B2B2B2B0020202F
:1006BF002020202020202020202B2B2B2B2B002014
:1006CF002020202020202020202B2B2B2B2B2B00F9
:1006DF002020202020202020202B2B2B2B2B2B2BBE
:1006EF000020202020202020202B2B2B2B2B2B2BCE
:1006FF002B00202020202020202B2B2B2B2B2B2BB3
:10070F002B2B002020202020202B2B2B2B2B2B2B97
:10071F002B2B2B0020202020202B2B2B2B2B2B2B7C
:10072F002B2B2B2B00202020202B2B2B2B2B2B2B61
:10073F002B2B2B2B2B002020202B2B2B2B2B2B2B46
:10074F002B2B2B2B2B2B0020202B2B2B2B2B2B2B2B
:10075F002B2B2B2B2B2B2B00202B2B2B2B2B2B2B10
:10076F002B2B2B2B2B2B2B2B002B2B2B2B2B2B2BF5
:10077F002B2B2B2B2B2B2B2B2B0012033775E60040
:10078F0075E70012005DC0E0740114120094D0E010
:10079F00C083C082C0E0900524120087D0E0D082D1
:1007AF00D083C0E0740114120092D0E0C083C082E5
:1007BF00C0E0900536120087D0E0D082D083C0020F
:1007CF007AFA12000ED002C0027AFA12000ED0028C
:1007DF00C0027AFA12000ED002C0027AFA12000E8C
:1007EF00D002C0027AFA12000ED002C0027AFA12B8
:1007FF00000ED002C0027AFA12000ED002C0027AA6
:10080F00FA12000ED002C0027AFA12000ED002C005
:10081F00027AFA12000ED002C0027AFA12000ED03B
:10082F0002C0027AFA12000ED002C0E07401141254
:10083F000094D0E0C083C082C0E0900547120087CB
:10084F00D0E0D082D083C0E0740114120092D0E0C7
:10085F00C083C082C0E0900668120087D0E0D082CB
:10086F00D083C0027A3212000ED002C0E07401149D
:10087F00120094D0E0C083C082C0E09005581200EF
:10088F0087D0E0D082D083C0E0740114120092D0E0
:10089F00E0C083C082C0E0900679120087D0E0D01C
:1008AF0082D083C0027A3212000ED002C0E07401EF
:1008BF0014120094D0E0C083C082C0E0900569128A
:1008CF000087D0E0D082D083C0E074011412009270
:1008DF00D0E0C083C082C0E090068A120087D0E0CB
:1008EF00D082D083C0027A3212000ED002C0E074E0
:1008FF000114120094D0E0C083C082C0E090057A4A
:10090F00120087D0E0D082D083C0E07401141200AF
:10091F0092D0E0C083C082C0E090069B120087D0C7
:10092F00E0D082D083C0027A3212000ED002C0E033
:10093F00740114120094D0E0C083C082C0E090050F
:10094F008B120087D0E0D082D083C0E074011412E4
:10095F000092D0E0C083C082C0E09006AC12008746
:10096F00D0E0D082D083C0027A3212000ED002C003
:10097F00E0740114120094D0E0C083C082C0E090F4
:10098F00059C120087D0E0D082D083C0E0740114A0
:10099F00120092D0E0C083C082C0E09006BD12006A
:1009AF0087D0E0D082D083C0027A3212000ED002FC
:1009BF00C0E0740114120094D0E0C083C082C0E084
:1009CF009005AD120087D0E0D082D083C0E07401D3
:1009DF0014120092D0E0C083C082C0E09006CE1205
:1009EF000087D0E0D082D083C0027A3212000ED0BE
:1009FF0002C0E0740114120094D0E0C083C082C022
:100A0F00E09005BE120087D0E0D082D083C0E074A2
:100A1F000114120092D0E0C083C082C0E09006DFC4
:100A2F00120087D0E0D082D083C0027A3212000E3B
:100A3F00D002C0E0740114120094D0E0C083C082D1
:100A4F00C0E09005CF120087D0E0D082D083C0E005
:100A5F00740114120092D0E0C083C082C0E09006EF
:100A6F00F0120087D0E0D082D083C0027A32120019
:100A7F000ED002C0E0740114120094D0E0C083C005
:100A8F0082C0E09005E0120087D0E0D082D083C012
:100A9F00E0740114120092D0E0C083C082C0E090D5
:100AAF000701120087D0E0D082D083C0027A3212C1
:100ABF00000ED002C0E0740114120094D0E0C08385
:100ACF00C082C0E09005F1120087D0E0D082D083C1
:100ADF00C0E0740114120092D0E0C083C082C0E065
:100AEF00900712120087D0E0D082D083C0027A32F2
:100AFF0012000ED002C0E0740114120094D0E0C0B6
:100B0F0083C082C0E0900602120087D0E0D082D06E
:100B1F0083C0E0740114120092D0E0C083C082C081
:100B2F00E0900723120087D0E0D082D083C0027AF2
:100B3F003212000ED002C0E0740114120094D0E003
:100B4F00C083C082C0E0900613120087D0E0D0822D
:100B5F00D083C0E0740114120092D0E0C083C08231
:100B6F00C0E0900734120087D0E0D082D083C0025B
:100B7F007A3212000ED002C0E0740114120094D029
:100B8F00E0C083C082C0E0900624120087D0E0D07E
:100B9F0082D083C0E0740114120092D0E0C083C0F1
:100BAF0082C0E0900745120087D0E0D082D083C08A
:100BBF00027A3212000ED002C0E0740114120094B7
:100BCF00D0E0C083C082C0E0900635120087D0E02D
:100BDF00D082D083C0E0740114120092D0E0C083A1
:100BEF00C082C0E0900756120087D0E0D082D08339
:100BFF00C0027A3212000ED002C0E074011412004B
:100C0F0094D0E0C083C082C0E0900646120087D027
:100C1F00E0D082D083C0E0740114120092D0E0C003
:100C2F0083C082C0E0900767120087D0E0D082D0E7
:100C3F0083C0027A3212000ED002C0E07401141287
:100C4F000094D0E0C083C082C0E0900657120087A6
:100C5F00D0E0D082D083C0E0740114120092D0E0B3
:100C6F00C083C082C0E0900778120087D0E0D082A6
:100C7F00D083C0027A3212000ED002C0027A641200
:100C8F00000ED002C0E0740114120094D0E0C083B3
:100C9F00C082C0E0900657120087D0E0D082D08388
:100CAF00C0E0740114120092D0E0C083C082C0E093
:100CBF00900778120087D0E0D082D083C0027A32BA
:100CCF0012000ED002C0E0740114120094D0E0C0E4
:100CDF0083C082C0E0900646120087D0E0D082D059
:100CEF0083C0E0740114120092D0E0C083C082C0B0
:100CFF00E0900767120087D0E0D082D083C0027ADD
:100D0F003212000ED002C0E0740114120094D0E031
:100D1F00C083C082C0E0900635120087D0E0D08239
:100D2F00D083C0E0740114120092D0E0C083C0825F
:100D3F00C0E0900756120087D0E0D082D083C00267
:100D4F007A3212000ED002C0E0740114120094D057
:100D5F00E0C083C082C0E0900624120087D0E0D0AC
:100D6F0082D083C0E0740114120092D0E0C083C01F
:100D7F0082C0E0900745120087D0E0D082D083C0B8
:100D8F00027A3212000ED002C0E0740114120094E5
:100D9F00D0E0C083C082C0E0900613120087D0E07D
:100DAF00D082D083C0E0740114120092D0E0C083CF
:100DBF00C082C0E0900734120087D0E0D082D08389
:100DCF00C0027A3212000ED002C0E0740114120079
:100DDF0094D0E0C083C082C0E0900602120087D09A
:100DEF00E0D082D083C0E0740114120092D0E0C032
:100DFF0083C082C0E0900723120087D0E0D082D05A
:100E0F0083C0027A3212000ED002C0E074011412B5
:100E1F000094D0E0C083C082C0E09005F11200873B
:100E2F00D0E0D082D083C0E0740114120092D0E0E1
:100E3F00C083C082C0E0900712120087D0E0D0823A
:100E4F00D083C0027A3212000ED002C0E0740114B7
:100E5F00120094D0E0C083C082C0E09005E0120081
:100E6F0087D0E0D082D083C0E0740114120092D0FA
:100E7F00E0C083C082C0E0900701120087D0E0D0AD
:100E8F0082D083C0027A3212000ED002C0E0740109
:100E9F0014120094D0E0C083C082C0E09005CF123E
:100EAF000087D0E0D082D083C0E07401141200928A
:100EBF00D0E0C083C082C0E09006F0120087D0E07F
:100ECF00D082D083C0027A3212000ED002C0E074FA
:100EDF000114120094D0E0C083C082C0E09005BE20
:100EEF00120087D0E0D082D083C0E07401141200CA
:100EFF0092D0E0C083C082C0E09006DF120087D09E
:100F0F00E0D082D083C0027A3212000ED002C0E04D
:100F1F00740114120094D0E0C083C082C0E0900529
:100F2F00AD120087D0E0D082D083C0E074011412DC
:100F3F000092D0E0C083C082C0E09006CE1200873E
:100F4F00D0E0D082D083C0027A3212000ED002C01D
:100F5F00E0740114120094D0E0C083C082C0E0900E
:100F6F00059C120087D0E0D082D083C0E0740114BA
:100F7F00120092D0E0C083C082C0E09006BD120084
:100F8F0087D0E0D082D083C0027A3212000ED00216
:100F9F00C0E0740114120094D0E0C083C082C0E09E
:100FAF0090058B120087D0E0D082D083C0E074010F
:100FBF0014120092D0E0C083C082C0E09006AC1241
:100FCF000087D0E0D082D083C0027A3212000ED0D8
:100FDF0002C0E0740114120094D0E0C083C082C03C
:100FEF00E090057A120087D0E0D082D083C0E07401
:100FFF000114120092D0E0C083C082C0E090069B23
:10100F00120087D0E0D082D083C0027A3212000E55
:10101F00D002C0E0740114120094D0E0C083C082EB
:10102F00C0E0900569120087D0E0D082D083C0E085
:10103F00740114120092D0E0C083C082C0E0900609
:10104F008A120087D0E0D082D083C0027A32120099
:10105F000ED002C0E0740114120094D0E0C083C01F
:10106F0082C0E0900558120087D0E0D082D083C0B4
:10107F00E0740114120092D0E0C083C082C0E090EF
:10108F000679120087D0E0D082D083C0027A321264
:10109F00000ED002C0E0740114120094D0E0C0839F
:1010AF00C082C0E0900547120087D0E0D082D08385
:1010BF00C0E0740114120092D0E0C083C082C0E07F
:1010CF00900668120087D0E0D082D083C0027A32B7
:1010DF0012000ED00275817F12031FC0E07401143D
:1010EF00120094D0E0C083C082C0E09004EC1200E4
:1010FF0087D0E0D082D083C0E0740114120092D068
:10110F00E0C083C082C0E09004FE120087D0E0D020
:10111F0082D083C2A0780112033C788012033CE98D
:10112F005403F531785512033C8930D2A080001258
:10113F0003E780001200AF8000E53AB49905753AD5
:10114F0000801FD280208011C0027A3212000ED090
:10115F00022080053080FD8009E53A2401D4F53A5C
:10116F008000D291E53A75F032B5F0028004C201E9
:10117F008004D20180001204888000120355C00041
:10118F00A83A1203A2D0001204211200AF12036971
:06119F001203C20210E47D
:00000001FF
